{"abi":[{"type":"function","name":"repayLoan","inputs":[{"name":"_loanId","type":"uint256","internalType":"uint256"}],"outputs":[],"stateMutability":"nonpayable"},{"type":"event","name":"LoanPaid","inputs":[{"name":"loanId","type":"uint256","indexed":false,"internalType":"uint256"},{"name":"paidBy","type":"address","indexed":false,"internalType":"address"},{"name":"_amount","type":"uint256","indexed":false,"internalType":"uint256"}],"anonymous":false}],"bytecode":{"object":"0x6080604052348015600f57600080fd5b506107018061001f6000396000f3fe608060405234801561001057600080fd5b506004361061002b5760003560e01c8063ab7b1c8914610030575b600080fd5b61004361003e3660046105ea565b610045565b005b60008181527fc8fcad8db84d3cc18b4c41d551ea0ee66dd599cde068d998e57d5e09332c13226020526040902060018101547fc8fcad8db84d3cc18b4c41d551ea0ee66dd599cde068d998e57d5e09332c131c91906001600160a01b03166100ea5760405162461bcd60e51b8152602060048201526013602482015272131bd85b88191bd95cc81b9bdd08195e1a5cdd606a1b60448201526064015b60405180910390fd5b336101375760405162461bcd60e51b815260206004820152601860248201527f41646472657373207a65726f206e6f7420616c6c6f776564000000000000000060448201526064016100e1565b60018101546001600160a01b031633146101935760405162461bcd60e51b815260206004820152601960248201527f596f7520617265206e6f742074686520626f72726f7765722e0000000000000060448201526064016100e1565b600581015460ff16156101dd5760405162461bcd60e51b81526020600482015260126024820152712637b0b71020b63932b0b23c902830b4b21760711b60448201526064016100e1565b6001600a82015460ff1660028111156101f8576101f8610603565b1461023a5760405162461bcd60e51b81526020600482015260126024820152714c6f616e206973206e6f742061637469766560701b60448201526064016100e1565b6002810154600682015460078301546001600160a01b039092169160009161026191610565565b6040516370a0823160e01b815233600482015290915081906001600160a01b038416906370a0823190602401602060405180830381865afa1580156102aa573d6000803e3d6000fd5b505050506040513d601f19601f820116820180604052508101906102ce9190610619565b1161031b5760405162461bcd60e51b815260206004820152601b60248201527f496e73756666696369656e7420726571756972656420746f6b656e000000000060448201526064016100e1565b600a8301805460ff1990811660021791829055600585018054909116600117905542600c8501556040516323b872dd60e01b81523360048201526001600160a01b036101009092048216602482015260448101839052908316906323b872dd906064016020604051808303816000875af115801561039d573d6000803e3d6000fd5b505050506040513d601f19601f820116820180604052508101906103c19190610632565b50600883015460098401546040516331a9108f60e11b81526001600160a01b039092169133918391636352211e916103ff9160040190815260200190565b602060405180830381865afa15801561041c573d6000803e3d6000fd5b505050506040513d601f19601f82011682018060405250810190610440919061065b565b6001600160a01b0316146104a85760405162461bcd60e51b815260206004820152602960248201527f526570617946616365743a20436f6e747261637420646f6573206e6f74206f776044820152681b881d1a194813919560ba1b60648201526084016100e1565b60018401546009850154604051632142170760e11b81523060048201526001600160a01b0392831660248201526044810191909152908216906342842e0e90606401600060405180830381600087803b15801561050457600080fd5b505af1158015610518573d6000803e3d6000fd5b5050604080518981523360208201529081018590527fc2b7b85da0b4126352be1a3fb321c166a2706622365e208c72e40f2c7a445eb09250606001905060405180910390a1505050505050565b600060648211156105c85760405162461bcd60e51b815260206004820152602760248201527f496e7465726573742072617465206d757374206265206265747765656e2030206044820152660616e64203130360cc1b60648201526084016100e1565b600060646105d68486610684565b6105e091906106a9565b9150505b92915050565b6000602082840312156105fc57600080fd5b5035919050565b634e487b7160e01b600052602160045260246000fd5b60006020828403121561062b57600080fd5b5051919050565b60006020828403121561064457600080fd5b8151801515811461065457600080fd5b9392505050565b60006020828403121561066d57600080fd5b81516001600160a01b038116811461065457600080fd5b80820281158282048414176105e457634e487b7160e01b600052601160045260246000fd5b6000826106c657634e487b7160e01b600052601260045260246000fd5b50049056fea2646970667358221220239fc42c54c5e0854d4bec6f629c874a163f618c2702f29277257eff76b048e664736f6c634300081a0033","linkReferences":{}},"methodIdentifiers":{"repayLoan(uint256)":"ab7b1c89"},"id":6}