{"abi":[{"type":"function","name":"acceptLoanOffer","inputs":[{"name":"_loanId","type":"uint256","internalType":"uint256"}],"outputs":[],"stateMutability":"nonpayable"},{"type":"function","name":"forceCloseLoan","inputs":[{"name":"_loanId","type":"uint256","internalType":"uint256"}],"outputs":[],"stateMutability":"nonpayable"},{"type":"event","name":"LoanAccepted","inputs":[{"name":"loanId","type":"uint256","indexed":true,"internalType":"uint256"},{"name":"lender","type":"address","indexed":true,"internalType":"address"},{"name":"amount","type":"uint256","indexed":false,"internalType":"uint256"}],"anonymous":false},{"type":"event","name":"LoanClosed","inputs":[{"name":"loanId","type":"uint256","indexed":true,"internalType":"uint256"},{"name":"lender","type":"address","indexed":false,"internalType":"address"},{"name":"","type":"uint8","indexed":false,"internalType":"enum LibDiamond.LoanStatus"}],"anonymous":false}],"bytecode":{"object":"0x6080604052348015600f57600080fd5b5061084d8061001f6000396000f3fe608060405234801561001057600080fd5b50600436106100365760003560e01c806321265d0e1461003b578063fb4b12a614610050575b600080fd5b61004e61004936600461071b565b610063565b005b61004e61005e36600461071b565b6103f3565b60008181527fc8fcad8db84d3cc18b4c41d551ea0ee66dd599cde068d998e57d5e09332c13226020526040902060018101547fc8fcad8db84d3cc18b4c41d551ea0ee66dd599cde068d998e57d5e09332c131c91906001600160a01b03166101085760405162461bcd60e51b8152602060048201526013602482015272131bd85b88191bd95cc81b9bdd08195e1a5cdd606a1b60448201526064015b60405180910390fd5b336101505760405162461bcd60e51b81526020600482015260186024820152771059191c995cdcc81e995c9bc81b9bdd08185b1b1bddd95960421b60448201526064016100ff565b6000600a82015460ff16600281111561016b5761016b610734565b146101ae5760405162461bcd60e51b81526020600482015260136024820152724c6f616e206973206e6f742070656e64696e6760681b60448201526064016100ff565b600281015460068201546040516370a0823160e01b81523360048201526001600160a01b039092169182906370a0823190602401602060405180830381865afa1580156101ff573d6000803e3d6000fd5b505050506040513d601f19601f82011682018060405250810190610223919061074a565b116102705760405162461bcd60e51b815260206004820152601b60248201527f496e73756666696369656e7420726571756972656420746f6b656e000000000060448201526064016100ff565b600a8201805460ff196101003302166001600160a81b031990911617600117905560038201546102a09042610763565b60048381019190915542600b84015533600081815260088601602090815260408083208054600180820183559185529290932090910188905590850154600686015491516323b872dd60e01b8152938401929092526001600160a01b03918216602484015260448301528216906323b872dd906064016020604051808303816000875af1158015610335573d6000803e3d6000fd5b505050506040513d601f19601f82011682018060405250810190610359919061078a565b6103a55760405162461bcd60e51b815260206004820152601760248201527f4c656e64696e67205472616e73666572206661696c656400000000000000000060448201526064016100ff565b336001600160a01b0316847f07d9fc8fb88e727d855acc85fd6b115d20d9f707675b746707f91b1e750e4e4e84600601546040516103e591815260200190565b60405180910390a350505050565b60008181527fc8fcad8db84d3cc18b4c41d551ea0ee66dd599cde068d998e57d5e09332c13226020526040902060018101547fc8fcad8db84d3cc18b4c41d551ea0ee66dd599cde068d998e57d5e09332c131c91906001600160a01b03166104935760405162461bcd60e51b8152602060048201526013602482015272131bd85b88191bd95cc81b9bdd08195e1a5cdd606a1b60448201526064016100ff565b336104db5760405162461bcd60e51b81526020600482015260186024820152771059191c995cdcc81e995c9bc81b9bdd08185b1b1bddd95960421b60448201526064016100ff565b600581015460ff16156105255760405162461bcd60e51b8152602060048201526012602482015271131bd85b881a185cc81899595b881c185a5960721b60448201526064016100ff565b600a81015461010090046001600160a01b0316331461057f5760405162461bcd60e51b81526020600482015260166024820152752cb7ba93b932903737ba103a3432903632b73232b91760511b60448201526064016100ff565b600a8101805460ff19166002179055600881015460098201546040516331a9108f60e11b815260048101919091526001600160a01b039091169033908290636352211e90602401602060405180830381865afa1580156105e3573d6000803e3d6000fd5b505050506040513d601f19601f8201168201806040525081019061060791906107b3565b6001600160a01b03161461066e5760405162461bcd60e51b815260206004820152602860248201527f4c6f616e46616365743a20426f72726f77657220646f6573206e6f74206f776e604482015267081d1a194813919560c21b60648201526084016100ff565b6009820154604051632142170760e11b815230600482015233602482015260448101919091526001600160a01b038216906342842e0e90606401600060405180830381600087803b1580156106c257600080fd5b505af11580156106d6573d6000803e3d6000fd5b50505050837f2edde4efb9581aaa6157e64c609773f758b3080711b79a9afd6fa195e23ff3ff33600260405161070d9291906107dc565b60405180910390a250505050565b60006020828403121561072d57600080fd5b5035919050565b634e487b7160e01b600052602160045260246000fd5b60006020828403121561075c57600080fd5b5051919050565b8082018082111561078457634e487b7160e01b600052601160045260246000fd5b92915050565b60006020828403121561079c57600080fd5b815180151581146107ac57600080fd5b9392505050565b6000602082840312156107c557600080fd5b81516001600160a01b03811681146107ac57600080fd5b6001600160a01b0383168152604081016003831061080a57634e487b7160e01b600052602160045260246000fd5b826020830152939250505056fea2646970667358221220e8e6405f1325121d858314e280445b4670e081132d4642ff1e702ca70431130464736f6c634300081a0033","linkReferences":{}},"methodIdentifiers":{"acceptLoanOffer(uint256)":"21265d0e","forceCloseLoan(uint256)":"fb4b12a6"},"id":3}