{"abi":[{"type":"function","name":"createLoanTerms","inputs":[{"name":"_currency","type":"address","internalType":"address"},{"name":"_duration","type":"uint256","internalType":"uint256"},{"name":"_amount","type":"uint256","internalType":"uint256"},{"name":"_interestRate","type":"uint256","internalType":"uint256"},{"name":"_collateral","type":"address","internalType":"address"},{"name":"_collateralTokenId","type":"uint256","internalType":"uint256"}],"outputs":[],"stateMutability":"nonpayable"},{"type":"function","name":"getLoan","inputs":[{"name":"_loanId","type":"uint256","internalType":"uint256"}],"outputs":[{"name":"","type":"tuple","internalType":"struct LibDiamond.Loan","components":[{"name":"loanId","type":"uint256","internalType":"uint256"},{"name":"borrower","type":"address","internalType":"address"},{"name":"currency","type":"address","internalType":"address"},{"name":"loanDuration","type":"uint256","internalType":"uint256"},{"name":"dueDate","type":"uint256","internalType":"uint256"},{"name":"isRepaid","type":"bool","internalType":"bool"},{"name":"amount","type":"uint256","internalType":"uint256"},{"name":"interestRate","type":"uint256","internalType":"uint256"},{"name":"collateral","type":"address","internalType":"address"},{"name":"collateralTokenId","type":"uint256","internalType":"uint256"},{"name":"status","type":"uint8","internalType":"enum LibDiamond.LoanStatus"},{"name":"lender","type":"address","internalType":"address"},{"name":"acceptedAt","type":"uint256","internalType":"uint256"},{"name":"paidAt","type":"uint256","internalType":"uint256"}]}],"stateMutability":"view"},{"type":"function","name":"getLoanCount","inputs":[],"outputs":[{"name":"","type":"uint256","internalType":"uint256"}],"stateMutability":"view"},{"type":"event","name":"LoanCreated","inputs":[{"name":"loanId","type":"uint256","indexed":true,"internalType":"uint256"},{"name":"_borrower","type":"address","indexed":true,"internalType":"address"},{"name":"_currency","type":"address","indexed":false,"internalType":"address"},{"name":"_duration","type":"uint256","indexed":false,"internalType":"uint256"},{"name":"_dueDate","type":"uint256","indexed":false,"internalType":"uint256"},{"name":"_amount","type":"uint256","indexed":false,"internalType":"uint256"},{"name":"_interestRate","type":"uint256","indexed":false,"internalType":"uint256"},{"name":"_collateral","type":"address","indexed":false,"internalType":"address"},{"name":"_collateralTokenId","type":"uint256","indexed":false,"internalType":"uint256"}],"anonymous":false}],"bytecode":{"object":"0x6080604052348015600f57600080fd5b50610b048061001f6000396000f3fe608060405234801561001057600080fd5b50600436106100415760003560e01c80632660765814610046578063504006ca1461005b5780635219681214610084575b600080fd5b6100596100543660046108be565b6100b4565b005b61006e61006936600461091c565b61066a565b60405161007b919061096d565b60405180910390f35b7fc8fcad8db84d3cc18b4c41d551ea0ee66dd599cde068d998e57d5e09332c13215460405190815260200161007b565b6001600160a01b03861661010f5760405162461bcd60e51b815260206004820152601f60248201527f43757272656e637920616464726573732063616e6e6f74206265207a65726f0060448201526064015b60405180910390fd5b600085116101525760405162461bcd60e51b815260206004820152601060248201526f24b73b30b634b210323ab930ba34b7b760811b6044820152606401610106565b600084116101935760405162461bcd60e51b815260206004820152600e60248201526d125b9d985b1a5908185b5bdd5b9d60921b6044820152606401610106565b60648311156101dc5760405162461bcd60e51b8152602060048201526015602482015274496e76616c696420696e746572657374207261746560581b6044820152606401610106565b6001600160a01b03821661023c5760405162461bcd60e51b815260206004820152602160248201527f436f6c6c61746572616c20616464726573732063616e6e6f74206265207a65726044820152606f60f81b6064820152608401610106565b6000811161028c5760405162461bcd60e51b815260206004820152601b60248201527f496e76616c696420636f6c6c61746572616c20746f6b656e20496400000000006044820152606401610106565b6040516331a9108f60e11b815260048101829052829033906001600160a01b03831690636352211e90602401602060405180830381865afa1580156102d5573d6000803e3d6000fd5b505050506040513d601f19601f820116820180604052508101906102f99190610a62565b6001600160a01b0316146103605760405162461bcd60e51b815260206004820152602860248201527f4c6f616e46616365743a20426f72726f77657220646f6573206e6f74206f776e604482015267081d1a194813919560c21b6064820152608401610106565b604051632142170760e11b8152336004820152306024820152604481018390526001600160a01b038216906342842e0e90606401600060405180830381600087803b1580156103ae57600080fd5b505af11580156103c2573d6000803e3d6000fd5b5050505060006103ef7fc8fcad8db84d3cc18b4c41d551ea0ee66dd599cde068d998e57d5e09332c131c90565b600581018054919250600061040383610a9c565b90915550506005810154604080516101c0810182528281523360208201526001600160a01b038b169181019190915260608101899052608081016104478a42610ab5565b8152602001600015158152602001888152602001878152602001866001600160a01b031681526020018581526020016000600281111561048957610489610935565b8152600060208083018290526040808401839052606093840183905285835260068088018352928190208551815591850151600180840180546001600160a01b039384166001600160a01b0319918216179091559287015160028086018054928516928616929092179091559587015160038501556080870151600485015560a087015160058501805491151560ff1992831617905560c08801519585019590955560e087015160078501556101008701516008850180549190931693169290921790556101208501516009830155610140850151600a83018054939591949093169190849081111561057e5761057e610935565b0217905550610160820151600a820180546001600160a01b0390921661010002610100600160a81b0319909216919091179055610180820151600b8201556101a090910151600c90910155336000818152600784016020908152604082208054600181018255908352912001829055817fbc4e53dd772bf8d8738dfa0f429b6b7a7e7acc5ec69d363e67f49975b2e9f6548b8b61061b8142610ab5565b604080516001600160a01b0394851681526020810193909352820152606081018c9052608081018b905290891660a082015260c0810188905260e00160405180910390a3505050505050505050565b610672610800565b60008281527fc8fcad8db84d3cc18b4c41d551ea0ee66dd599cde068d998e57d5e09332c13226020526040902060018101547fc8fcad8db84d3cc18b4c41d551ea0ee66dd599cde068d998e57d5e09332c131c91906001600160a01b03166107125760405162461bcd60e51b8152602060048201526013602482015272131bd85b88191bd95cc81b9bdd08195e1a5cdd606a1b6044820152606401610106565b604080516101c0810182528254815260018301546001600160a01b0390811660208301526002808501548216938301939093526003840154606083015260048401546080830152600584015460ff908116151560a0840152600685015460c0840152600785015460e084015260088501549091166101008301526009840154610120830152600a8401549192849261014085019216908111156107b7576107b7610935565b60028111156107c8576107c8610935565b8152600a82015461010090046001600160a01b03166020820152600b8201546040820152600c90910154606090910152949350505050565b604051806101c001604052806000815260200160006001600160a01b0316815260200160006001600160a01b031681526020016000815260200160008152602001600015158152602001600081526020016000815260200160006001600160a01b03168152602001600081526020016000600281111561088257610882610935565b815260200160006001600160a01b0316815260200160008152602001600081525090565b6001600160a01b03811681146108bb57600080fd5b50565b60008060008060008060c087890312156108d757600080fd5b86356108e2816108a6565b95506020870135945060408701359350606087013592506080870135610907816108a6565b9598949750929591949360a090920135925050565b60006020828403121561092e57600080fd5b5035919050565b634e487b7160e01b600052602160045260246000fd5b6003811061096957634e487b7160e01b600052602160045260246000fd5b9052565b815181526020808301516101c0830191610991908401826001600160a01b03169052565b5060408301516109ac60408401826001600160a01b03169052565b50606083015160608301526080830151608083015260a08301516109d460a084018215159052565b5060c083015160c083015260e083015160e0830152610100830151610a056101008401826001600160a01b03169052565b50610120830151610120830152610140830151610a2661014084018261094b565b50610160830151610a436101608401826001600160a01b03169052565b506101808301516101808301526101a08301516101a083015292915050565b600060208284031215610a7457600080fd5b8151610a7f816108a6565b9392505050565b634e487b7160e01b600052601160045260246000fd5b600060018201610aae57610aae610a86565b5060010190565b80820180821115610ac857610ac8610a86565b9291505056fea264697066735822122096f66d7e41d775e1d6fff394502d52930eddf533300d9bde0dc3d36718ca4c9164736f6c634300081a0033","linkReferences":{}},"methodIdentifiers":{"createLoanTerms(address,uint256,uint256,uint256,address,uint256)":"26607658","getLoan(uint256)":"504006ca","getLoanCount()":"52196812"},"id":4}